{
  "contractName": "Ballot",
  "abi": [
    {
      "constant": false,
      "inputs": [
        {
          "internalType": "address",
          "name": "instituteaddress",
          "type": "address"
        }
      ],
      "name": "createNewMultiSigbyUser",
      "outputs": [],
      "payable": false,
      "stateMutability": "nonpayable",
      "type": "function"
    },
    {
      "constant": false,
      "inputs": [
        {
          "internalType": "string",
          "name": "a",
          "type": "string"
        }
      ],
      "name": "uploadAadhar",
      "outputs": [],
      "payable": false,
      "stateMutability": "nonpayable",
      "type": "function"
    }
  ],
  "bytecode": "0x608060405234801561001057600080fd5b50610281806100206000396000f3fe608060405234801561001057600080fd5b50600436106100365760003560e01c806302e8dbc01461003b578063fc75d4f5146100f6575b600080fd5b6100f46004803603602081101561005157600080fd5b810190808035906020019064010000000081111561006e57600080fd5b82018360208201111561008057600080fd5b803590602001918460018302840111640100000000831117156100a257600080fd5b91908080601f016020809104026020016040519081016040528093929190818152602001838380828437600081840152601f19601f82011690508083019250505050505050919291929050505061013a565b005b6101386004803603602081101561010c57600080fd5b81019080803573ffffffffffffffffffffffffffffffffffffffff169060200190929190505050610180565b005b60008060003373ffffffffffffffffffffffffffffffffffffffff1673ffffffffffffffffffffffffffffffffffffffff16815260200190815260200160002090505050565b60008060003373ffffffffffffffffffffffffffffffffffffffff1673ffffffffffffffffffffffffffffffffffffffff1681526020019081526020016000209050818160000160006101000a81548173ffffffffffffffffffffffffffffffffffffffff021916908373ffffffffffffffffffffffffffffffffffffffff160217905550338160010160006101000a81548173ffffffffffffffffffffffffffffffffffffffff021916908373ffffffffffffffffffffffffffffffffffffffff160217905550505056fea265627a7a7231582061b1a73232aa513a5578fe62d14633f885ebb5437e2877559b482cccfc3d4b7564736f6c63430005100032",
  "source": "pragma solidity ^0.5.0;\r\ncontract Ballot {\r\n\r\nstruct Documents {\r\n\r\n    string aadhar;\r\n\r\n}\r\n\r\n\r\nstruct MultiSig\r\n{\r\n\r\n    address inst;\r\n    address stud;\r\nDocuments documents;\r\n\r\n\r\n}\r\n\r\n\r\n\r\nmapping(address=>MultiSig) wallets ;\r\n\r\n\r\n\r\n\r\n\r\n\r\n\r\nfunction createNewMultiSigbyUser(address instituteaddress) public {\r\n\r\n        Ballot.MultiSig storage wa = wallets[msg.sender];\r\n        wa.inst=instituteaddress;\r\n        wa.stud=msg.sender;\r\n\r\n\r\n}\r\n\r\n\r\n\r\nfunction uploadAadhar(string memory a) public {\r\n\r\n    Ballot.MultiSig storage wa=wallets[msg.sender];\r\n\r\n\r\n\r\n\r\n}\r\n}\r\n",
  "sourcePath": "C:\\Users\\mapu_\\OneDrive\\Documentos\\TesisMapu\\BC-CERT\\contracts\\SimpleStorage.sol",
  "compiler": {
    "name": "solc",
    "version": "0.5.16+commit.9c3226ce.Emscripten.clang"
  },
  "schemaVersion": "3.1.0",
  "updatedAt": "2020-05-15T15:15:27.958Z",
  "devdoc": {
    "methods": {}
  },
  "userdoc": {
    "methods": {}
  }
}